:020000040000FA
:1000000000160020150200001D0200001F02000063
:100010002102000023020000250200000000000071
:1000200000000000000000000000000027020000A7
:1000300029020000000000002B0200002D02000039
:10004000190300002F0200002F0200002F02000001
:100050002F0200002F0200005D0200002F020000AE
:10006000410600002F0200002F0200002F020000B6
:100070002F0200002F0200002F0200002F020000BC
:100080002F0200006D0300002F0200002F0200006D
:100090002F0200002F0200002F0200002F0200009C
:1000A0002F0200002F0200002F0200002F0200008C
:1000B0002F0200002F0200000000000000000000DE
:1000C0002F0200002F0200002F0200002F0200006C
:1000D0002F0200002F0200002F020000000000008D
:1000E0000000000000000000000000000000000010
:1000F0000000000000000000000000000000000000
:1001000000000000000000000000000000000000EF
:1001100000000000000000000000000000000000DF
:1001200000000000000000000000000000000000CF
:1001300000000000000000000000000000000000BF
:1001400000000000000000000000000000000000AF
:10015000000000000000000000000000000000009F
:10016000000000000000000000000000000000008F
:10017000000000000000000000000000000000007F
:10018000000000000000000000000000000000006F
:10019000000000000000000000000000000000005F
:1001A000000000000000000000000000000000004F
:1001B000000000000000000000000000000000003F
:1001C000000000000000000000000000000000002F
:1001D000000000000000000000000000000000001F
:1001E000000000000000000000000000000000000F
:1001F00000000000000000000000000000000000FF
:10020000DFF80CD000F018F800480047170700008E
:10021000001600200648804706480047FEE7FEE734
:10022000FEE7FEE7FEE7FEE7FEE7FEE7FEE7FEE7A6
:100230009503000001020000064C074D06E0E0684F
:1002400040F0010394E8070098471034AC42F6D31D
:10025000FFF7DAFFB40E0000D40E00002DE9F84FCE
:100260000026002000904FF480770125002410E044
:10027000384600F03FFD40B100BF254800682840E7
:1002800018B1384600F028FD2E436D00381D87B2A6
:10029000641C082CECD34FF4BE7000F02BFD50B161
:1002A0004FF4BE7000F018FD46F000466A4601218A
:1002B000002000F0F1FCF0B210B3012500241DE095
:1002C00005EA0600C0B100BF124850F82400C0F390
:1002D0000420814600BF0F4850F82400C0F30140BD
:1002E0008246204600F0C8F98046B8F1000F02D0DF
:1002F00051464846C04700BF6D00641C082CDFD340
:1003000006F0004010B1684600F024FDBDE8F88F0B
:10031000046300401065004010B54FF4807000F099
:1003200088FC80B14FF4807000F08CFC012000F05C
:1003300093FC0D48407930B901200B4948710846BB
:100340000168002088474FF4827000F072FC50B1C1
:100350004FF4827000F076FC022000F07DFC024831
:1003600001680120884710BD0000002010B5034A35
:100370001068034A1168884710BD00000C00002077
:100380000800002001480249086070470090D0032F
:100390002800002010B500F035FA28B197480088F1
:1003A000C0F304209649086000F0C0FA10B19548E7
:1003B0009549486700F0FAFA30B19048E038006893
:1003C000C0F342309149086000F01EFB28B190480C
:1003D000006820F080708E49086000F035FB48B15D
:1003E00000208C4908604FF08041C1F81001874916
:1003F000091F086000F06CFB18B1032083496431C9
:10040000086000F085FB68B1052083490860012081
:1004100081497831086000207F49083108603F2019
:10042000091F086000F094FB002855D07348E030A5
:1004300000687A4908607148E4300068091D086066
:100440006E48E8300068091D08606C48EC300068B0
:10045000091D08606948F0300068091D0860674898
:10046000F4300068091D08606448F83000686B4982
:10047000203108606148FC300068091D0860684848
:100480000068091D08606648001D0068091D0860B5
:10049000634808300068091D086061480C30006836
:1004A000091D08605E48103000685C4940310860F2
:1004B0005B4814300068091D08605948183000680E
:1004C000091D086056481C300068091D0860544822
:1004D00020300068091D086000F07EFB18B151480B
:1004E0004D497C31086000F03DF930B14348CC38CB
:1004F000006800F04F004C49086000F061F940B11D
:100500003E48CC3801784848006861F3030046490A
:10051000086000F0A5F918B14FF400704349086075
:1005200000F0C0F940B14248006800F0010018B185
:100530006FF001003E49086000F018FA28B13D480C
:10054000006840F480603B490860314874380068B6
:1005500040F470002E497439086000BF00BF00BF2E
:10056000BFF34F8F00BF00BF00BF00BF00BF00BF81
:10057000BFF36F8F00BF00BF00BF2F48006800F0BF
:10058000004028B92C48001D006800F0004088B3E6
:10059000012000F0CDFB15202749086000F0D2FBB8
:1005A00015214FF01020C0F8041200F0CBFB002002
:1005B00000F0BEFB00BF00BF00BF00BF00BFBFF325
:1005C0004F8F00BF00BF00BF1148F038006800F433
:1005D000E0601A490843001D0D49F039086000BF6A
:1005E00000BF00BFBFF34F8F00BF00BF00BF00BF01
:1005F00000BFFDE7FFE7FFF7C5FE10BD24030010B5
:10060000403501400DF0ADBA00C007403C05004048
:10061000FCED00E00C0100401056004020C50040F9
:100620002404001048810300E40E0040409602407C
:10063000000400403C170040001200100000FA05C2
:1006400010B504220249034800F024F810BD000050
:10065000780000200080004002E008C8121F08C196
:10066000002AFAD170477047002001E001C1121F33
:10067000002AFBD1704700000146024850F82100D3
:10068000704700002C00002001460148405670478A
:10069000500000202DE9F04704460E469046002702
:1006A00022E0384600F031FB0546384600F034FBC6
:1006B00081462046294642580AB1012200E0002224
:1006C00082B14846D4F80413014009B1012100E089
:1006D000002139B12946204600F023FB2846D6E9FF
:1006E00000219047781CC7B24745DADBBDE8F087A8
:1006F00010B5044622460121002000F0CDFA002169
:1007000005E054F8210008B1012010BD491C002962
:10071000F7D00020F9E7122001210A4600231C46E9
:100720001D4600BF4FF0A0473E4641EA420747EA58
:10073000830747EA042747EA054C06F5E06747F8D0
:1007400020C000BF00BF0CE0122000BF4FF0A0414E
:100750000A46012303FA00F1C2F80C1500BF00BFDE
:1007600000BFF1E714480068401C38B9134801780D
:10077000124808300078C0F3031205E00E48016803
:100780004FF08050D0F83421062912D1032A06D028
:10079000042A06D0052A06D0062A08D105E0012041
:1007A00070470120FCE70120FAE70120F8E701206B
:1007B000F6E70020F4E7000030010010E00F00F041
:1007C0000F4802684FF08050D0F83411082A14D135
:1007D000062910D2DFE801F0030507090B0D0120FF
:1007E00070470020FCE70020FAE70020F8E700202F
:1007F000F6E70020F4E70020F2E70020F0E7000031
:100800003001001014480068401C38B913480178C2
:10081000124808300078C0F3031205E00E48016862
:100820004FF08050D0F83421062912D1032A06D087
:10083000042A06D0052A06D0062A08D105E00120A0
:1008400070470120FCE70120FAE70120F8E70120CA
:10085000F6E70020F4E7000030010010E00F00F0A0
:100860000F4802684FF08050D0F83411082A14D194
:10087000062910D2DFE801F0030507090B0D01205E
:1008800070470020FCE70020FAE70020F8E700208E
:10089000F6E70020F4E70020F2E70020F0E7000090
:1008A000300100101F480068401C38B91E4802780B
:1008B0001D4808300078C0F3031105E019480268AC
:1008C0004FF08050D0F83411062A12D1032906D0F7
:1008D000042906D0052906D0062908D105E0012003
:1008E00070470120FCE70120FAE70120F8E701202A
:1008F000F6E7082A14D1062910D2DFE801F0030533
:1009000007090B0D0120EBE70120E9E70120E7E7EC
:100910000120E5E70020E3E70020E1E70020DFE732
:100920000020DDE730010010E00F00F00E480278F3
:100930000D4808300078C0F30311062A12D10329AC
:1009400006D0042906D0052906D0062908D105E0DD
:10095000012070470020FCE70020FAE70020F8E7BC
:100960000020F6E70020F4E7E00F00F00E480268F0
:100970004FF08050D0F83411062A12D1032906D046
:10098000042906D0052906D0062908D105E0002053
:1009900070470020FCE70020FAE70120F8E701207B
:1009A000F6E70020F4E7000030010010144800686A
:1009B000401C38B913480178124808300078C0F359
:1009C000031205E00E4801684FF08050D0F8342142
:1009D000062912D1032A06D0042A06D0052A06D0F9
:1009E000062A08D105E0012070470120FCE701201C
:1009F000FAE70120F8E70120F6E70020F4E700001D
:100A000030010010E00F00F00E4802780D48083069
:100A10000078C0F30311062A12D1032906D0042955
:100A200006D0052906D0062908D105E00120704727
:100A30000020FCE70020FAE70020F8E70020F6E7B6
:100A40000020F4E7E00F00F01F480068401C38B9B0
:100A50001E4802781D4808300078C0F3031105E0F5
:100A6000194802684FF08050D0F83411062A12D18C
:100A7000032906D0042906D0052906D0062908D165
:100A800005E0012070470120FCE70120FAE7012082
:100A9000F8E70120F6E7082A14D1062910D2DFE88A
:100AA00001F0030507090B0D0120EBE70120E9E741
:100AB0000120E7E70120E5E70020E3E70020E1E788
:100AC0000020DFE70020DDE730010010E00F00F03C
:100AD0000E4802780D4808300078C0F30311062A4A
:100AE00012D1032906D0042906D0052906D00629EB
:100AF00008D105E0012070470020FCE70020FAE75C
:100B00000020F8E70020F6E70020F4E7E00F00F00F
:100B10000E4802780D4808300078C0F30311062A09
:100B200012D1032906D0042906D0052906D00629AA
:100B300008D105E0012070470020FCE70020FAE71B
:100B40000020F8E70020F6E70020F4E7E00F00F0CF
:100B50001F480068401C38B91E4802781D480830FC
:100B60000078C0F3031105E0194802684FF0805087
:100B7000D0F83411062A12D1032906D0042906D050
:100B8000052906D0062908D105E00020704700207D
:100B9000FCE70120FAE70120F8E70120F6E7082A40
:100BA00014D1062910D2DFE801F0030507090B0D67
:100BB0000120EBE70120E9E70120E7E70120E5E775
:100BC0000020E3E70020E1E70020DFE70020DDE789
:100BD00030010010E00F00F00F4802684FF0805025
:100BE000D0F83411082A14D1062910D2DFE801F018
:100BF000030507090B0D012070470020FCE70020CA
:100C0000FAE70020F8E70020F6E70020F4E70020EC
:100C1000F2E70020F0E700003001001030B5024696
:100C20000B46D40802F00702012090401D5D2840C9
:100C300030BD01464FF08040405808B10120704758
:100C40000020FCE708B500224FF080410A50095807
:100C5000009100BF08BD0000014908607047000016
:100C60000803004010B50A4600BF4FF0A0431946E4
:100C700001F5E06353F8203023F4403401F5E063DC
:100C800043F8204053F8203043EA024401F5E06382
:100C900043F8204010BD000038B503460A4C2468D4
:100CA000009418460BE05DF82040D4F8204514600D
:100CB0005DF820501468C5F82045121D401C5C18D2
:100CC0008442F0D838BD0000340E000001460148CF
:100CD000084470470060004038B504462046FFF7DE
:100CE000F5FF002101602046FFF7F0FF006800904B
:100CF00000BF38BD10B504462046FFF7E7FF006887
:100D0000012800D110BD0020FCE701464FF4A0707F
:100D100000EB810080B2704701464FF4803088407C
:100D2000704708B5002242504258009200BF08BDEB
:100D300000B501460248016000F004F800BD000063
:100D400004E5014000BF024800680028FBD070475E
:100D500000E401402DE9F05F814600BF00254DE031
:100D60002B484057401C00B947E0284600F052F895
:100D7000044649462046FFF751FF00283CD028464C
:100D800000F050F8064600BF00BF4FF0A0410846F3
:100D900000F5E06151F82410C1F301418846B8F133
:100DA000020F01D1032000E0022082465146204676
:100DB000FFF758FF00BF00BF4FF0A04108460121D8
:100DC000A140C0F8201500BF2046FFF75DFC834618
:100DD000FFF752FC074677B1032E09D0B8F1020F96
:100DE00001D1012E04D0B8F1030F04D1022E02D19B
:100DF00031462046B84700BF00BF6D1C002DAFD064
:100E00004846FFF775FC0028A8D1BDE8F09F000018
:100E10007000002001460248425C22F0C00070478A
:100E20007000002001460248425C900970470000B3
:100E300070000020000000506E7266785F67706975
:100E40006F74655F696E6974006E7266785F677053
:100E5000696F74655F6F75745F696E6974006E7237
:100E600066785F6770696F74655F696E5F696E69E8
:100E700074000000636C6F636B000000434C4F43D1
:100E80004B0000004750494F5445000054494D4520
:100E900052000000505049006170705F74696D65C8
:100EA00072000000736F72746C697374000000004C
:100EB00061707000280F0000000000202C0000006E
:100EC00058060000540F00002C000020D41500002C
:100ED00068060000740E0000000000007C0E000098
:100EE00000000000840E0000000000008C0E0000D6
:100EF00000000000940E000000000000980E0000AA
:100F000000000000A40E000000000000B00E000071
:100F1000000003031C000020140000201C0000201F
:100F20008400002018000000000000000000000005
:100F300000000000000000000000000000000000B1
:100F4000000000000000000000000000FF000000A2
:040F50000090D0033A
:0400000500000201F4
:00000001FF
