Component: ARM Compiler 5.06 update 6 (build 750) Tool: armlink [4d35ed]

==============================================================================

Section Cross References

    boards.o(i.bsp_board_button_idx_to_pin) refers to boards.o(.constdata) for m_board_btn_list
    boards.o(i.bsp_board_button_state_get) refers to boards.o(.constdata) for m_board_btn_list
    boards.o(i.bsp_board_buttons_init) refers to boards.o(i.nrf_gpio_cfg) for nrf_gpio_cfg
    boards.o(i.bsp_board_buttons_init) refers to boards.o(.constdata) for m_board_btn_list
    boards.o(i.bsp_board_init) refers to boards.o(i.bsp_board_leds_init) for bsp_board_leds_init
    boards.o(i.bsp_board_init) refers to boards.o(i.bsp_board_buttons_init) for bsp_board_buttons_init
    boards.o(i.bsp_board_led_idx_to_pin) refers to boards.o(.constdata) for m_board_led_list
    boards.o(i.bsp_board_led_invert) refers to boards.o(.constdata) for m_board_led_list
    boards.o(i.bsp_board_led_off) refers to boards.o(i.nrf_gpio_pin_write) for nrf_gpio_pin_write
    boards.o(i.bsp_board_led_off) refers to boards.o(.constdata) for m_board_led_list
    boards.o(i.bsp_board_led_on) refers to boards.o(i.nrf_gpio_pin_write) for nrf_gpio_pin_write
    boards.o(i.bsp_board_led_on) refers to boards.o(.constdata) for m_board_led_list
    boards.o(i.bsp_board_led_state_get) refers to boards.o(.constdata) for m_board_led_list
    boards.o(i.bsp_board_leds_init) refers to boards.o(i.nrf_gpio_cfg) for nrf_gpio_cfg
    boards.o(i.bsp_board_leds_init) refers to boards.o(i.bsp_board_leds_off) for bsp_board_leds_off
    boards.o(i.bsp_board_leds_init) refers to boards.o(.constdata) for m_board_led_list
    boards.o(i.bsp_board_leds_off) refers to boards.o(i.bsp_board_led_off) for bsp_board_led_off
    boards.o(i.bsp_board_leds_on) refers to boards.o(i.bsp_board_led_on) for bsp_board_led_on
==============================================================================

Removing Unused input sections from the image.

    Removing main.o(.rev16_text), (4 bytes).
    Removing main.o(.revsh_text), (4 bytes).
    Removing main.o(.rrx_text), (6 bytes).
    Removing boards.o(.rev16_text), (4 bytes).
    Removing boards.o(.revsh_text), (4 bytes).
    Removing boards.o(.rrx_text), (6 bytes).
    Removing boards.o(i.bsp_board_button_idx_to_pin), (12 bytes).
    Removing boards.o(i.bsp_board_button_state_get), (48 bytes).
    Removing boards.o(i.bsp_board_buttons_init), (44 bytes).
    Removing boards.o(i.bsp_board_init), (26 bytes).
    Removing boards.o(i.bsp_board_led_idx_to_pin), (12 bytes).
    Removing boards.o(i.bsp_board_led_invert), (48 bytes).
    Removing boards.o(i.bsp_board_led_off), (20 bytes).
    Removing boards.o(i.bsp_board_led_on), (20 bytes).
    Removing boards.o(i.bsp_board_led_state_get), (48 bytes).
    Removing boards.o(i.bsp_board_leds_init), (48 bytes).
    Removing boards.o(i.bsp_board_leds_off), (20 bytes).
    Removing boards.o(i.bsp_board_leds_on), (20 bytes).
==============================================================================

Image Symbol Table

    Local Symbols

    Symbol Name                              Value     Ov Type        Size  Object(Section)

    RESET                                    0x00000000   Section      512  arm_startup_nrf52.o(RESET)
    ../clib/microlib/ctype/ctype.c           0x00000000   Number         0  isdigit_o.o ABSOLUTE
    ../clib/microlib/ctype/ctype.c           0x00000000   Number         0  isxdigit_o.o ABSOLUTE
    ../clib/microlib/ctype/ctype.c           0x00000000   Number         0  isupper_o.o ABSOLUTE
    ../clib/microlib/ctype/ctype.c           0x00000000   Number         0  ctype_o.o ABSOLUTE
    ../clib/microlib/ctype/ctype.c           0x00000000   Number         0  isalpha_o.o ABSOLUTE
    ../clib/microlib/ctype/ctype.c           0x00000000   Number         0  iscntrl_o.o ABSOLUTE
    ../clib/microlib/ctype/ctype.c           0x00000000   Number         0  isgraph_o.o ABSOLUTE
    ../clib/microlib/ctype/ctype.c           0x00000000   Number         0  isalnum_o.o ABSOLUTE
    ../clib/microlib/ctype/ctype.c           0x00000000   Number         0  islower_o.o ABSOLUTE
    ../clib/microlib/ctype/ctype.c           0x00000000   Number         0  isprint_o.o ABSOLUTE
    ../clib/microlib/ctype/ctype.c           0x00000000   Number         0  ispunct_o.o ABSOLUTE
    ../clib/microlib/ctype/ctype.c           0x00000000   Number         0  isblank_o.o ABSOLUTE
    ../clib/microlib/ctype/ctype.c           0x00000000   Number         0  isspace_o.o ABSOLUTE
    ../clib/microlib/init/entry.s            0x00000000   Number         0  entry11a.o ABSOLUTE
    ../clib/microlib/init/entry.s            0x00000000   Number         0  entry11b.o ABSOLUTE
    ../clib/microlib/init/entry.s            0x00000000   Number         0  entry.o ABSOLUTE
    ../clib/microlib/init/entry.s            0x00000000   Number         0  entry10a.o ABSOLUTE
    ../clib/microlib/init/entry.s            0x00000000   Number         0  entry7a.o ABSOLUTE
    ../clib/microlib/init/entry.s            0x00000000   Number         0  entry8b.o ABSOLUTE
    ../clib/microlib/init/entry.s            0x00000000   Number         0  entry2.o ABSOLUTE
    ../clib/microlib/init/entry.s            0x00000000   Number         0  entry9a.o ABSOLUTE
    ../clib/microlib/init/entry.s            0x00000000   Number         0  entry7b.o ABSOLUTE
    ../clib/microlib/init/entry.s            0x00000000   Number         0  entry9b.o ABSOLUTE
    ../clib/microlib/init/entry.s            0x00000000   Number         0  entry5.o ABSOLUTE
    ../clib/microlib/init/entry.s            0x00000000   Number         0  entry8a.o ABSOLUTE
    ../clib/microlib/init/entry.s            0x00000000   Number         0  entry10b.o ABSOLUTE
    ../clib/microlib/stdio/fflush.c          0x00000000   Number         0  fflush.o ABSOLUTE
    ../clib/microlib/stdio/fputc.c           0x00000000   Number         0  fputc.o ABSOLUTE
    ../clib/microlib/stdio/semi.s            0x00000000   Number         0  semi.o ABSOLUTE
    ../clib/microlib/stdio/streams.c         0x00000000   Number         0  stdout.o ABSOLUTE
    ../clib/microlib/string/memcpy.c         0x00000000   Number         0  memcpya.o ABSOLUTE
    ../clib/microlib/string/memcpy.c         0x00000000   Number         0  memcpyb.o ABSOLUTE
    ../clib/microlib/string/memset.c         0x00000000   Number         0  memseta.o ABSOLUTE
    ../clib/microlib/string/strcmp.c         0x00000000   Number         0  strcmp.o ABSOLUTE
    ../clib/microlib/string/strcpy.c         0x00000000   Number         0  strcpy.o ABSOLUTE
    ../clib/microlib/string/strlen.c         0x00000000   Number         0  strlen.o ABSOLUTE
    ../clib/microlib/stubs.s                 0x00000000   Number         0  iusesemip.o ABSOLUTE
    ../clib/microlib/stubs.s                 0x00000000   Number         0  useno.o ABSOLUTE
    ..\..\app\main.c                         0x00000000   Number         0  main.o ABSOLUTE
    ..\..\components\boards\boards.c         0x00000000   Number         0  boards.o ABSOLUTE
    ..\..\components\libraries\atomic\nrf_atomic.c 0x00000000   Number         0  nrf_atomic.o ABSOLUTE
    ..\..\components\libraries\atomic_fifo\nrf_atfifo.c 0x00000000   Number         0  nrf_atfifo.o ABSOLUTE
    ..\..\components\libraries\balloc\nrf_balloc.c 0x00000000   Number         0  nrf_balloc.o ABSOLUTE
    ..\..\components\libraries\log\src\nrf_log_backend_rtt.c 0x00000000   Number         0  nrf_log_backend_rtt.o ABSOLUTE
    ..\..\components\libraries\log\src\nrf_log_backend_serial.c 0x00000000   Number         0  nrf_log_backend_serial.o ABSOLUTE
    ..\..\components\libraries\log\src\nrf_log_backend_uart.c 0x00000000   Number         0  nrf_log_backend_uart.o ABSOLUTE
    ..\..\components\libraries\log\src\nrf_log_default_backends.c 0x00000000   Number         0  nrf_log_default_backends.o ABSOLUTE
    ..\..\components\libraries\log\src\nrf_log_frontend.c 0x00000000   Number         0  nrf_log_frontend.o ABSOLUTE
    ..\..\components\libraries\log\src\nrf_log_str_formatter.c 0x00000000   Number         0  nrf_log_str_formatter.o ABSOLUTE
    ..\..\components\libraries\memobj\nrf_memobj.c 0x00000000   Number         0  nrf_memobj.o ABSOLUTE
    ..\..\components\libraries\ringbuf\nrf_ringbuf.c 0x00000000   Number         0  nrf_ringbuf.o ABSOLUTE
    ..\..\components\libraries\sortlist\nrf_sortlist.c 0x00000000   Number         0  nrf_sortlist.o ABSOLUTE
    ..\..\components\libraries\strerror\nrf_strerror.c 0x00000000   Number         0  nrf_strerror.o ABSOLUTE
    ..\..\components\libraries\timer\app_timer2.c 0x00000000   Number         0  app_timer2.o ABSOLUTE
    ..\..\components\libraries\timer\drv_rtc.c 0x00000000   Number         0  drv_rtc.o ABSOLUTE
    ..\..\components\libraries\util\app_error.c 0x00000000   Number         0  app_error.o ABSOLUTE
    ..\..\components\libraries\util\app_error_handler_keil.c 0x00000000   Number         0  app_error_handler_keil.o ABSOLUTE
    ..\..\components\libraries\util\app_error_weak.c 0x00000000   Number         0  app_error_weak.o ABSOLUTE
    ..\..\components\libraries\util\app_util_platform.c 0x00000000   Number         0  app_util_platform.o ABSOLUTE
    ..\..\components\libraries\util\nrf_assert.c 0x00000000   Number         0  nrf_assert.o ABSOLUTE
    ..\..\external\fprintf\nrf_fprintf.c     0x00000000   Number         0  nrf_fprintf.o ABSOLUTE
    ..\..\external\fprintf\nrf_fprintf_format.c 0x00000000   Number         0  nrf_fprintf_format.o ABSOLUTE
    ..\..\external\segger_rtt\SEGGER_RTT.c   0x00000000   Number         0  segger_rtt.o ABSOLUTE
    ..\..\external\segger_rtt\SEGGER_RTT_Syscalls_KEIL.c 0x00000000   Number         0  segger_rtt_syscalls_keil.o ABSOLUTE
    ..\..\external\segger_rtt\SEGGER_RTT_printf.c 0x00000000   Number         0  segger_rtt_printf.o ABSOLUTE
    ..\..\integration\nrfx\legacy\nrf_drv_clock.c 0x00000000   Number         0  nrf_drv_clock.o ABSOLUTE
    ..\..\integration\nrfx\legacy\nrf_drv_ppi.c 0x00000000   Number         0  nrf_drv_ppi.o ABSOLUTE
    ..\..\modules\nrfx\drivers\src\nrfx_clock.c 0x00000000   Number         0  nrfx_clock.o ABSOLUTE
    ..\..\modules\nrfx\drivers\src\nrfx_gpiote.c 0x00000000   Number         0  nrfx_gpiote.o ABSOLUTE
    ..\..\modules\nrfx\drivers\src\nrfx_ppi.c 0x00000000   Number         0  nrfx_ppi.o ABSOLUTE
    ..\..\modules\nrfx\drivers\src\nrfx_rtc.c 0x00000000   Number         0  nrfx_rtc.o ABSOLUTE
    ..\..\modules\nrfx\drivers\src\nrfx_timer.c 0x00000000   Number         0  nrfx_timer.o ABSOLUTE
    ..\..\modules\nrfx\soc\nrfx_atomic.c     0x00000000   Number         0  nrfx_atomic.o ABSOLUTE
    ..\\..\\app\\main.c                      0x00000000   Number         0  main.o ABSOLUTE
    ..\\..\\components\\boards\\boards.c     0x00000000   Number         0  boards.o ABSOLUTE
    ..\\..\\components\\libraries\\atomic\\nrf_atomic.c 0x00000000   Number         0  nrf_atomic.o ABSOLUTE
    ..\\..\\components\\libraries\\atomic_fifo\\nrf_atfifo.c 0x00000000   Number         0  nrf_atfifo.o ABSOLUTE
    ..\\..\\components\\libraries\\balloc\\nrf_balloc.c 0x00000000   Number         0  nrf_balloc.o ABSOLUTE
    ..\\..\\components\\libraries\\log\\src\\nrf_log_backend_rtt.c 0x00000000   Number         0  nrf_log_backend_rtt.o ABSOLUTE
    ..\\..\\components\\libraries\\log\\src\\nrf_log_backend_serial.c 0x00000000   Number         0  nrf_log_backend_serial.o ABSOLUTE
    ..\\..\\components\\libraries\\log\\src\\nrf_log_backend_uart.c 0x00000000   Number         0  nrf_log_backend_uart.o ABSOLUTE
    ..\\..\\components\\libraries\\log\\src\\nrf_log_default_backends.c 0x00000000   Number         0  nrf_log_default_backends.o ABSOLUTE
    ..\\..\\components\\libraries\\log\\src\\nrf_log_frontend.c 0x00000000   Number         0  nrf_log_frontend.o ABSOLUTE
    ..\\..\\components\\libraries\\log\\src\\nrf_log_str_formatter.c 0x00000000   Number         0  nrf_log_str_formatter.o ABSOLUTE
    ..\\..\\components\\libraries\\memobj\\nrf_memobj.c 0x00000000   Number         0  nrf_memobj.o ABSOLUTE
    ..\\..\\components\\libraries\\ringbuf\\nrf_ringbuf.c 0x00000000   Number         0  nrf_ringbuf.o ABSOLUTE
    ..\\..\\components\\libraries\\sortlist\\nrf_sortlist.c 0x00000000   Number         0  nrf_sortlist.o ABSOLUTE
    ..\\..\\components\\libraries\\strerror\\nrf_strerror.c 0x00000000   Number         0  nrf_strerror.o ABSOLUTE
    ..\\..\\components\\libraries\\timer\\app_timer2.c 0x00000000   Number         0  app_timer2.o ABSOLUTE
    ..\\..\\components\\libraries\\timer\\drv_rtc.c 0x00000000   Number         0  drv_rtc.o ABSOLUTE
    ..\\..\\components\\libraries\\util\\app_error.c 0x00000000   Number         0  app_error.o ABSOLUTE
    ..\\..\\components\\libraries\\util\\app_error_handler_keil.c 0x00000000   Number         0  app_error_handler_keil.o ABSOLUTE
    ..\\..\\components\\libraries\\util\\app_error_weak.c 0x00000000   Number         0  app_error_weak.o ABSOLUTE
    ..\\..\\components\\libraries\\util\\app_util_platform.c 0x00000000   Number         0  app_util_platform.o ABSOLUTE
    ..\\..\\components\\libraries\\util\\nrf_assert.c 0x00000000   Number         0  nrf_assert.o ABSOLUTE
    ..\\..\\external\\fprintf\\nrf_fprintf.c 0x00000000   Number         0  nrf_fprintf.o ABSOLUTE
    ..\\..\\external\\fprintf\\nrf_fprintf_format.c 0x00000000   Number         0  nrf_fprintf_format.o ABSOLUTE
    ..\\..\\external\\segger_rtt\\SEGGER_RTT.c 0x00000000   Number         0  segger_rtt.o ABSOLUTE
    ..\\..\\external\\segger_rtt\\SEGGER_RTT_Syscalls_KEIL.c 0x00000000   Number         0  segger_rtt_syscalls_keil.o ABSOLUTE
    ..\\..\\external\\segger_rtt\\SEGGER_RTT_printf.c 0x00000000   Number         0  segger_rtt_printf.o ABSOLUTE
    ..\\..\\integration\\nrfx\\legacy\\nrf_drv_clock.c 0x00000000   Number         0  nrf_drv_clock.o ABSOLUTE
    ..\\..\\integration\\nrfx\\legacy\\nrf_drv_ppi.c 0x00000000   Number         0  nrf_drv_ppi.o ABSOLUTE
    ..\\..\\modules\\nrfx\\drivers\\src\\nrfx_clock.c 0x00000000   Number         0  nrfx_clock.o ABSOLUTE
    ..\\..\\modules\\nrfx\\drivers\\src\\nrfx_gpiote.c 0x00000000   Number         0  nrfx_gpiote.o ABSOLUTE
    ..\\..\\modules\\nrfx\\drivers\\src\\nrfx_ppi.c 0x00000000   Number         0  nrfx_ppi.o ABSOLUTE
    ..\\..\\modules\\nrfx\\drivers\\src\\nrfx_rtc.c 0x00000000   Number         0  nrfx_rtc.o ABSOLUTE
    ..\\..\\modules\\nrfx\\drivers\\src\\nrfx_timer.c 0x00000000   Number         0  nrfx_timer.o ABSOLUTE
    ..\\..\\modules\\nrfx\\soc\\nrfx_atomic.c 0x00000000   Number         0  nrfx_atomic.o ABSOLUTE
    RTE\Device\nRF52832_xxAA\arm_startup_nrf52.s 0x00000000   Number         0  arm_startup_nrf52.o ABSOLUTE
    RTE\Device\nRF52832_xxAA\system_nrf52.c  0x00000000   Number         0  system_nrf52.o ABSOLUTE
    RTE\\Device\\nRF52832_xxAA\\system_nrf52.c 0x00000000   Number         0  system_nrf52.o ABSOLUTE
    dc.s                                     0x00000000   Number         0  dc.o ABSOLUTE
    handlers.s                               0x00000000   Number         0  handlers.o ABSOLUTE
    init.s                                   0x00000000   Number         0  init.o ABSOLUTE
    .ARM.Collect$$$$00000000                 0x00000200   Section        0  entry.o(.ARM.Collect$$$$00000000)
    .ARM.Collect$$$$00000001                 0x00000200   Section        4  entry2.o(.ARM.Collect$$$$00000001)
    .ARM.Collect$$$$00000004                 0x00000204   Section        4  entry5.o(.ARM.Collect$$$$00000004)
    .ARM.Collect$$$$00000008                 0x00000208   Section        0  entry7b.o(.ARM.Collect$$$$00000008)
    .ARM.Collect$$$$0000000A                 0x00000208   Section        0  entry8b.o(.ARM.Collect$$$$0000000A)
    .ARM.Collect$$$$0000000B                 0x00000208   Section        8  entry9a.o(.ARM.Collect$$$$0000000B)
    .ARM.Collect$$$$0000000D                 0x00000210   Section        0  entry10a.o(.ARM.Collect$$$$0000000D)
    .ARM.Collect$$$$0000000F                 0x00000210   Section        0  entry11a.o(.ARM.Collect$$$$0000000F)
    .ARM.Collect$$$$00002712                 0x00000210   Section        4  entry2.o(.ARM.Collect$$$$00002712)
    __lit__00000000                          0x00000210   Data           4  entry2.o(.ARM.Collect$$$$00002712)
    .text                                    0x00000214   Section       36  arm_startup_nrf52.o(.text)
    $v0                                      0x00000214   Number         0  arm_startup_nrf52.o(.text)
    .text                                    0x00000238   Section       36  init.o(.text)
    i.GPIOTE_IRQHandler                      0x0000025c   Section        0  nrfx_gpiote.o(i.GPIOTE_IRQHandler)
    i.POWER_CLOCK_IRQHandler                 0x00000318   Section        0  nrfx_clock.o(i.POWER_CLOCK_IRQHandler)
    i.RTC1_IRQHandler                        0x0000036c   Section        0  drv_rtc.o(i.RTC1_IRQHandler)
    i.SystemCoreClockUpdate                  0x00000384   Section        0  system_nrf52.o(i.SystemCoreClockUpdate)
    i.SystemInit                             0x00000394   Section        0  system_nrf52.o(i.SystemInit)
    i.TIMER0_IRQHandler                      0x00000640   Section        0  nrfx_timer.o(i.TIMER0_IRQHandler)
    i.__scatterload_copy                     0x00000658   Section       14  handlers.o(i.__scatterload_copy)
    i.__scatterload_null                     0x00000666   Section        2  handlers.o(i.__scatterload_null)
    i.__scatterload_zeroinit                 0x00000668   Section       14  handlers.o(i.__scatterload_zeroinit)
    i.channel_handler_get                    0x00000678   Section        0  nrfx_gpiote.o(i.channel_handler_get)
    channel_handler_get                      0x00000679   Thumb Code    10  nrfx_gpiote.o(i.channel_handler_get)
    i.channel_port_get                       0x00000688   Section        0  nrfx_gpiote.o(i.channel_port_get)
    channel_port_get                         0x00000689   Thumb Code     8  nrfx_gpiote.o(i.channel_port_get)
    i.irq_handler                            0x00000694   Section        0  nrfx_timer.o(i.irq_handler)
    irq_handler                              0x00000695   Thumb Code    92  nrfx_timer.o(i.irq_handler)
    i.latch_pending_read_and_check           0x000006f0   Section        0  nrfx_gpiote.o(i.latch_pending_read_and_check)
    latch_pending_read_and_check             0x000006f1   Thumb Code    38  nrfx_gpiote.o(i.latch_pending_read_and_check)
    i.main                                   0x00000716   Section        0  main.o(i.main)
    i.nrf52_errata_108                       0x00000764   Section        0  system_nrf52.o(i.nrf52_errata_108)
    nrf52_errata_108                         0x00000765   Thumb Code    82  system_nrf52.o(i.nrf52_errata_108)
    i.nrf52_errata_115                       0x000007c0   Section        0  system_nrf52.o(i.nrf52_errata_115)
    nrf52_errata_115                         0x000007c1   Thumb Code    62  system_nrf52.o(i.nrf52_errata_115)
    i.nrf52_errata_12                        0x00000804   Section        0  system_nrf52.o(i.nrf52_errata_12)
    nrf52_errata_12                          0x00000805   Thumb Code    82  system_nrf52.o(i.nrf52_errata_12)
    i.nrf52_errata_120                       0x00000860   Section        0  system_nrf52.o(i.nrf52_errata_120)
    nrf52_errata_120                         0x00000861   Thumb Code    62  system_nrf52.o(i.nrf52_errata_120)
    i.nrf52_errata_136                       0x000008a4   Section        0  system_nrf52.o(i.nrf52_errata_136)
    nrf52_errata_136                         0x000008a5   Thumb Code   128  system_nrf52.o(i.nrf52_errata_136)
    i.nrf52_errata_16                        0x0000092c   Section        0  system_nrf52.o(i.nrf52_errata_16)
    nrf52_errata_16                          0x0000092d   Thumb Code    60  system_nrf52.o(i.nrf52_errata_16)
    i.nrf52_errata_182                       0x0000096c   Section        0  system_nrf52.o(i.nrf52_errata_182)
    nrf52_errata_182                         0x0000096d   Thumb Code    58  system_nrf52.o(i.nrf52_errata_182)
    i.nrf52_errata_31                        0x000009ac   Section        0  system_nrf52.o(i.nrf52_errata_31)
    nrf52_errata_31                          0x000009ad   Thumb Code    82  system_nrf52.o(i.nrf52_errata_31)
    i.nrf52_errata_32                        0x00000a08   Section        0  system_nrf52.o(i.nrf52_errata_32)
    nrf52_errata_32                          0x00000a09   Thumb Code    60  system_nrf52.o(i.nrf52_errata_32)
    i.nrf52_errata_36                        0x00000a48   Section        0  system_nrf52.o(i.nrf52_errata_36)
    nrf52_errata_36                          0x00000a49   Thumb Code   128  system_nrf52.o(i.nrf52_errata_36)
    i.nrf52_errata_37                        0x00000ad0   Section        0  system_nrf52.o(i.nrf52_errata_37)
    nrf52_errata_37                          0x00000ad1   Thumb Code    60  system_nrf52.o(i.nrf52_errata_37)
    i.nrf52_errata_57                        0x00000b10   Section        0  system_nrf52.o(i.nrf52_errata_57)
    nrf52_errata_57                          0x00000b11   Thumb Code    60  system_nrf52.o(i.nrf52_errata_57)
    i.nrf52_errata_66                        0x00000b50   Section        0  system_nrf52.o(i.nrf52_errata_66)
    nrf52_errata_66                          0x00000b51   Thumb Code   128  system_nrf52.o(i.nrf52_errata_66)
    i.nrf52_errata_98                        0x00000bd8   Section        0  system_nrf52.o(i.nrf52_errata_98)
    nrf52_errata_98                          0x00000bd9   Thumb Code    62  system_nrf52.o(i.nrf52_errata_98)
    i.nrf_bitmask_bit_is_set                 0x00000c1c   Section        0  nrfx_gpiote.o(i.nrf_bitmask_bit_is_set)
    nrf_bitmask_bit_is_set                   0x00000c1d   Thumb Code    22  nrfx_gpiote.o(i.nrf_bitmask_bit_is_set)
    i.nrf_clock_event_check                  0x00000c32   Section        0  nrfx_clock.o(i.nrf_clock_event_check)
    nrf_clock_event_check                    0x00000c33   Thumb Code    18  nrfx_clock.o(i.nrf_clock_event_check)
    i.nrf_clock_event_clear                  0x00000c44   Section        0  nrfx_clock.o(i.nrf_clock_event_clear)
    nrf_clock_event_clear                    0x00000c45   Thumb Code    18  nrfx_clock.o(i.nrf_clock_event_clear)
    i.nrf_clock_int_disable                  0x00000c58   Section        0  nrfx_clock.o(i.nrf_clock_int_disable)
    nrf_clock_int_disable                    0x00000c59   Thumb Code     6  nrfx_clock.o(i.nrf_clock_int_disable)
    i.nrf_gpio_cfg_sense_set                 0x00000c64   Section        0  nrfx_gpiote.o(i.nrf_gpio_cfg_sense_set)
    nrf_gpio_cfg_sense_set                   0x00000c65   Thumb Code    50  nrfx_gpiote.o(i.nrf_gpio_cfg_sense_set)
    i.nrf_gpio_latches_read_and_clear        0x00000c98   Section        0  nrfx_gpiote.o(i.nrf_gpio_latches_read_and_clear)
    nrf_gpio_latches_read_and_clear          0x00000c99   Thumb Code    46  nrfx_gpiote.o(i.nrf_gpio_latches_read_and_clear)
    i.nrf_gpiote_event_addr_get              0x00000ccc   Section        0  nrfx_gpiote.o(i.nrf_gpiote_event_addr_get)
    nrf_gpiote_event_addr_get                0x00000ccd   Thumb Code     8  nrfx_gpiote.o(i.nrf_gpiote_event_addr_get)
    i.nrf_gpiote_event_clear                 0x00000cd8   Section        0  nrfx_gpiote.o(i.nrf_gpiote_event_clear)
    nrf_gpiote_event_clear                   0x00000cd9   Thumb Code    28  nrfx_gpiote.o(i.nrf_gpiote_event_clear)
    i.nrf_gpiote_event_is_set                0x00000cf4   Section        0  nrfx_gpiote.o(i.nrf_gpiote_event_is_set)
    nrf_gpiote_event_is_set                  0x00000cf5   Thumb Code    22  nrfx_gpiote.o(i.nrf_gpiote_event_is_set)
    i.nrf_timer_compare_event_get            0x00000d0a   Section        0  nrfx_timer.o(i.nrf_timer_compare_event_get)
    nrf_timer_compare_event_get              0x00000d0b   Thumb Code    14  nrfx_timer.o(i.nrf_timer_compare_event_get)
    i.nrf_timer_compare_int_get              0x00000d18   Section        0  nrfx_timer.o(i.nrf_timer_compare_int_get)
    nrf_timer_compare_int_get                0x00000d19   Thumb Code    10  nrfx_timer.o(i.nrf_timer_compare_int_get)
    i.nrf_timer_event_clear                  0x00000d22   Section        0  nrfx_timer.o(i.nrf_timer_event_clear)
    nrf_timer_event_clear                    0x00000d23   Thumb Code    14  nrfx_timer.o(i.nrf_timer_event_clear)
    i.nvmc_config                            0x00000d30   Section        0  system_nrf52.o(i.nvmc_config)
    i.nvmc_wait                              0x00000d44   Section        0  system_nrf52.o(i.nvmc_wait)
    i.port_event_handle                      0x00000d54   Section        0  nrfx_gpiote.o(i.port_event_handle)
    port_event_handle                        0x00000d55   Thumb Code   186  nrfx_gpiote.o(i.port_event_handle)
    i.port_handler_pin_get                   0x00000e14   Section        0  nrfx_gpiote.o(i.port_handler_pin_get)
    port_handler_pin_get                     0x00000e15   Thumb Code    12  nrfx_gpiote.o(i.port_handler_pin_get)
    i.port_handler_polarity_get              0x00000e24   Section        0  nrfx_gpiote.o(i.port_handler_polarity_get)
    port_handler_polarity_get                0x00000e25   Thumb Code    10  nrfx_gpiote.o(i.port_handler_polarity_get)
    .constdata                               0x00000e34   Section       62  nrfx_gpiote.o(.constdata)
    __func__                                 0x00000e38   Data          17  nrfx_gpiote.o(.constdata)
    __func__                                 0x00000e49   Data          21  nrfx_gpiote.o(.constdata)
    __func__                                 0x00000e5e   Data          20  nrfx_gpiote.o(.constdata)
    .conststrlit                             0x00000e74   Section        6  nrf_drv_clock.o(.conststrlit)
    .conststrlit                             0x00000e7c   Section        6  nrfx_clock.o(.conststrlit)
    .conststrlit                             0x00000e84   Section        7  nrfx_gpiote.o(.conststrlit)
    .conststrlit                             0x00000e8c   Section        6  nrfx_timer.o(.conststrlit)
    .conststrlit                             0x00000e94   Section        4  nrfx_ppi.o(.conststrlit)
    .conststrlit                             0x00000e98   Section       10  app_timer2.o(.conststrlit)
    .conststrlit                             0x00000ea4   Section        9  nrf_sortlist.o(.conststrlit)
    .conststrlit                             0x00000eb0   Section        4  nrf_log_frontend.o(.conststrlit)
    log_const_data                           0x00000ed4   Section        8  nrf_drv_clock.o(log_const_data)
    __tagsym$$used                           0x00000ed4   Number         0  nrf_drv_clock.o(log_const_data)
    log_const_data                           0x00000edc   Section        8  nrfx_clock.o(log_const_data)
    __tagsym$$used                           0x00000edc   Number         0  nrfx_clock.o(log_const_data)
    log_const_data                           0x00000ee4   Section        8  nrfx_gpiote.o(log_const_data)
    __tagsym$$used                           0x00000ee4   Number         0  nrfx_gpiote.o(log_const_data)
    log_const_data                           0x00000eec   Section        8  nrfx_timer.o(log_const_data)
    __tagsym$$used                           0x00000eec   Number         0  nrfx_timer.o(log_const_data)
    log_const_data                           0x00000ef4   Section        8  nrfx_ppi.o(log_const_data)
    __tagsym$$used                           0x00000ef4   Number         0  nrfx_ppi.o(log_const_data)
    log_const_data                           0x00000efc   Section        8  app_timer2.o(log_const_data)
    __tagsym$$used                           0x00000efc   Number         0  app_timer2.o(log_const_data)
    log_const_data                           0x00000f04   Section        8  nrf_sortlist.o(log_const_data)
    __tagsym$$used                           0x00000f04   Number         0  nrf_sortlist.o(log_const_data)
    log_const_data                           0x00000f0c   Section        8  nrf_log_frontend.o(log_const_data)
    __tagsym$$used                           0x00000f0c   Number         0  nrf_log_frontend.o(log_const_data)
    nrf_balloc                               0x00000f14   Section       20  nrf_log_frontend.o(nrf_balloc)
    __tagsym$$used                           0x00000f14   Number         0  nrf_log_frontend.o(nrf_balloc)
    .data                                    0x20000000   Section        8  nrfx_clock.o(.data)
    m_clock_cb                               0x20000000   Data           8  nrfx_clock.o(.data)
    .data                                    0x20000008   Section       12  drv_rtc.o(.data)
    m_handlers                               0x20000008   Data           4  drv_rtc.o(.data)
    m_cb                                     0x2000000c   Data           8  drv_rtc.o(.data)
    .data                                    0x20000014   Section       20  nrf_log_frontend.o(.data)
    log_mempool_nrf_balloc_pool_stack        0x20000014   Data           8  nrf_log_frontend.o(.data)
    log_mempool_nrf_balloc_cb                0x2000001c   Data           8  nrf_log_frontend.o(.data)
    m_buffer_mask                            0x20000024   Data           4  nrf_log_frontend.o(.data)
    .data                                    0x20000028   Section        4  system_nrf52.o(.data)
    __tagsym$$used                           0x20000028   Number         0  system_nrf52.o(.data)
    .bss                                     0x2000002c   Section       76  nrfx_gpiote.o(.bss)
    m_cb                                     0x2000002c   Data          76  nrfx_gpiote.o(.bss)
    .bss                                     0x20000078   Section       12  nrfx_timer.o(.bss)
    m_cb                                     0x20000078   Data          12  nrfx_timer.o(.bss)
    .bss                                     0x20000084   Section     1400  nrf_log_frontend.o(.bss)
    log_mempool_nrf_balloc_pool_mem          0x20000084   Data         192  nrf_log_frontend.o(.bss)
    m_log_push_ringbuf_buf                   0x20000144   Data         128  nrf_log_frontend.o(.bss)
    m_log_push_ringbuf_cb                    0x200001c4   Data          24  nrf_log_frontend.o(.bss)
    m_log_data                               0x200001dc   Data        1056  nrf_log_frontend.o(.bss)
    STACK                                    0x20000600   Section     4096  arm_startup_nrf52.o(STACK)

    Global Symbols

    Symbol Name                              Value     Ov Type        Size  Object(Section)

    BuildAttributes$$THM_ISAv4$E$P$D$K$B$S$7EM$VFPi3$EXTD16$VFPS$VFMA$PE$A:L22UL41UL21$X:L11$S22US41US21$IEEE1$IW$USESV6$~STKCKD$USESV7$~SHL$OSPACE$EBA8$MICROLIB$REQ8$EABIv2 0x00000000   Number         0  anon$$obj.o ABSOLUTE
    __ARM_use_no_argv                        0x00000000   Number         0  main.o ABSOLUTE
    __Vectors                                0x00000000   Data           4  arm_startup_nrf52.o(RESET)
    __use_no_errno                           0x00000000   Number         0  useno.o ABSOLUTE
    __use_no_exception_handling              0x00000000   Number         0  useno.o ABSOLUTE
    __use_no_fp                              0x00000000   Number         0  useno.o ABSOLUTE
    __use_no_heap                            0x00000000   Number         0  useno.o ABSOLUTE
    __use_no_heap_region                     0x00000000   Number         0  useno.o ABSOLUTE
    __use_no_semihosting                     0x00000000   Number         0  useno.o ABSOLUTE
    __use_no_semihosting_swi                 0x00000000   Number         0  useno.o ABSOLUTE
    __use_no_signal_handling                 0x00000000   Number         0  useno.o ABSOLUTE
    __cpp_initialize__aeabi_                  - Undefined Weak Reference
    __cxa_finalize                            - Undefined Weak Reference
    __decompress                              - Undefined Weak Reference
    _clock_init                               - Undefined Weak Reference
    _microlib_exit                            - Undefined Weak Reference
    log_dynamic_data$$Base                    - Undefined Reference
    __Vectors_End                            0x00000200   Data           0  arm_startup_nrf52.o(RESET)
    __Vectors_Size                           0x00000200   Number         0  arm_startup_nrf52.o ABSOLUTE
    __main                                   0x00000201   Thumb Code     0  entry.o(.ARM.Collect$$$$00000000)
    _main_stk                                0x00000201   Thumb Code     0  entry2.o(.ARM.Collect$$$$00000001)
    _main_scatterload                        0x00000205   Thumb Code     0  entry5.o(.ARM.Collect$$$$00000004)
    __main_after_scatterload                 0x00000209   Thumb Code     0  entry5.o(.ARM.Collect$$$$00000004)
    _main_clock                              0x00000209   Thumb Code     0  entry7b.o(.ARM.Collect$$$$00000008)
    _main_cpp_init                           0x00000209   Thumb Code     0  entry8b.o(.ARM.Collect$$$$0000000A)
    _main_init                               0x00000209   Thumb Code     0  entry9a.o(.ARM.Collect$$$$0000000B)
    __rt_final_cpp                           0x00000211   Thumb Code     0  entry10a.o(.ARM.Collect$$$$0000000D)
    __rt_final_exit                          0x00000211   Thumb Code     0  entry11a.o(.ARM.Collect$$$$0000000F)
    Reset_Handler                            0x00000215   Thumb Code     8  arm_startup_nrf52.o(.text)
    NMI_Handler                              0x0000021d   Thumb Code     2  arm_startup_nrf52.o(.text)
    HardFault_Handler                        0x0000021f   Thumb Code     2  arm_startup_nrf52.o(.text)
    MemoryManagement_Handler                 0x00000221   Thumb Code     2  arm_startup_nrf52.o(.text)
    BusFault_Handler                         0x00000223   Thumb Code     2  arm_startup_nrf52.o(.text)
    UsageFault_Handler                       0x00000225   Thumb Code     2  arm_startup_nrf52.o(.text)
    SVC_Handler                              0x00000227   Thumb Code     2  arm_startup_nrf52.o(.text)
    DebugMon_Handler                         0x00000229   Thumb Code     2  arm_startup_nrf52.o(.text)
    PendSV_Handler                           0x0000022b   Thumb Code     2  arm_startup_nrf52.o(.text)
    SysTick_Handler                          0x0000022d   Thumb Code     2  arm_startup_nrf52.o(.text)
    CCM_AAR_IRQHandler                       0x0000022f   Thumb Code     0  arm_startup_nrf52.o(.text)
    COMP_LPCOMP_IRQHandler                   0x0000022f   Thumb Code     0  arm_startup_nrf52.o(.text)
    ECB_IRQHandler                           0x0000022f   Thumb Code     0  arm_startup_nrf52.o(.text)
    FPU_IRQHandler                           0x0000022f   Thumb Code     0  arm_startup_nrf52.o(.text)
    I2S_IRQHandler                           0x0000022f   Thumb Code     0  arm_startup_nrf52.o(.text)
    MWU_IRQHandler                           0x0000022f   Thumb Code     0  arm_startup_nrf52.o(.text)
    NFCT_IRQHandler                          0x0000022f   Thumb Code     0  arm_startup_nrf52.o(.text)
    PDM_IRQHandler                           0x0000022f   Thumb Code     0  arm_startup_nrf52.o(.text)
    PWM0_IRQHandler                          0x0000022f   Thumb Code     0  arm_startup_nrf52.o(.text)
    PWM1_IRQHandler                          0x0000022f   Thumb Code     0  arm_startup_nrf52.o(.text)
    PWM2_IRQHandler                          0x0000022f   Thumb Code     0  arm_startup_nrf52.o(.text)
    QDEC_IRQHandler                          0x0000022f   Thumb Code     0  arm_startup_nrf52.o(.text)
    RADIO_IRQHandler                         0x0000022f   Thumb Code     0  arm_startup_nrf52.o(.text)
    RNG_IRQHandler                           0x0000022f   Thumb Code     0  arm_startup_nrf52.o(.text)
    RTC0_IRQHandler                          0x0000022f   Thumb Code     0  arm_startup_nrf52.o(.text)
    RTC2_IRQHandler                          0x0000022f   Thumb Code     0  arm_startup_nrf52.o(.text)
    SAADC_IRQHandler                         0x0000022f   Thumb Code     0  arm_startup_nrf52.o(.text)
    SPIM0_SPIS0_TWIM0_TWIS0_SPI0_TWI0_IRQHandler 0x0000022f   Thumb Code     0  arm_startup_nrf52.o(.text)
    SPIM1_SPIS1_TWIM1_TWIS1_SPI1_TWI1_IRQHandler 0x0000022f   Thumb Code     0  arm_startup_nrf52.o(.text)
    SPIM2_SPIS2_SPI2_IRQHandler              0x0000022f   Thumb Code     0  arm_startup_nrf52.o(.text)
    SWI0_EGU0_IRQHandler                     0x0000022f   Thumb Code     0  arm_startup_nrf52.o(.text)
    SWI1_EGU1_IRQHandler                     0x0000022f   Thumb Code     0  arm_startup_nrf52.o(.text)
    SWI2_EGU2_IRQHandler                     0x0000022f   Thumb Code     0  arm_startup_nrf52.o(.text)
    SWI3_EGU3_IRQHandler                     0x0000022f   Thumb Code     0  arm_startup_nrf52.o(.text)
    SWI4_EGU4_IRQHandler                     0x0000022f   Thumb Code     0  arm_startup_nrf52.o(.text)
    SWI5_EGU5_IRQHandler                     0x0000022f   Thumb Code     0  arm_startup_nrf52.o(.text)
    TEMP_IRQHandler                          0x0000022f   Thumb Code     0  arm_startup_nrf52.o(.text)
    TIMER1_IRQHandler                        0x0000022f   Thumb Code     0  arm_startup_nrf52.o(.text)
    TIMER2_IRQHandler                        0x0000022f   Thumb Code     0  arm_startup_nrf52.o(.text)
    TIMER3_IRQHandler                        0x0000022f   Thumb Code     0  arm_startup_nrf52.o(.text)
    TIMER4_IRQHandler                        0x0000022f   Thumb Code     0  arm_startup_nrf52.o(.text)
    UARTE0_UART0_IRQHandler                  0x0000022f   Thumb Code     0  arm_startup_nrf52.o(.text)
    WDT_IRQHandler                           0x0000022f   Thumb Code     0  arm_startup_nrf52.o(.text)
    __scatterload                            0x00000239   Thumb Code    28  init.o(.text)
    __scatterload_rt2                        0x00000239   Thumb Code     0  init.o(.text)
    GPIOTE_IRQHandler                        0x0000025d   Thumb Code   180  nrfx_gpiote.o(i.GPIOTE_IRQHandler)
    POWER_CLOCK_IRQHandler                   0x00000319   Thumb Code    80  nrfx_clock.o(i.POWER_CLOCK_IRQHandler)
    RTC1_IRQHandler                          0x0000036d   Thumb Code    14  drv_rtc.o(i.RTC1_IRQHandler)
    SystemCoreClockUpdate                    0x00000385   Thumb Code     8  system_nrf52.o(i.SystemCoreClockUpdate)
    SystemInit                               0x00000395   Thumb Code   616  system_nrf52.o(i.SystemInit)
    TIMER0_IRQHandler                        0x00000641   Thumb Code    14  nrfx_timer.o(i.TIMER0_IRQHandler)
    __scatterload_copy                       0x00000659   Thumb Code    14  handlers.o(i.__scatterload_copy)
    __scatterload_null                       0x00000667   Thumb Code     2  handlers.o(i.__scatterload_null)
    __scatterload_zeroinit                   0x00000669   Thumb Code    14  handlers.o(i.__scatterload_zeroinit)
    main                                     0x00000717   Thumb Code    78  main.o(i.main)
    nvmc_config                              0x00000d31   Thumb Code    14  system_nrf52.o(i.nvmc_config)
    nvmc_wait                                0x00000d45   Thumb Code    12  system_nrf52.o(i.nvmc_wait)
    Region$$Table$$Base                      0x00000eb4   Number         0  anon$$obj.o(Region$$Table)
    Region$$Table$$Limit                     0x00000ed4   Number         0  anon$$obj.o(Region$$Table)
    log_const_data$$Base                     0x00000ed4   Number         0  nrf_drv_clock.o(log_const_data)
    m_nrf_log_clock_logs_data_const          0x00000ed4   Data           8  nrf_drv_clock.o(log_const_data)
    m_nrf_log_CLOCK_logs_data_const          0x00000edc   Data           8  nrfx_clock.o(log_const_data)
    m_nrf_log_GPIOTE_logs_data_const         0x00000ee4   Data           8  nrfx_gpiote.o(log_const_data)
    m_nrf_log_TIMER_logs_data_const          0x00000eec   Data           8  nrfx_timer.o(log_const_data)
    m_nrf_log_PPI_logs_data_const            0x00000ef4   Data           8  nrfx_ppi.o(log_const_data)
    m_nrf_log_app_timer_logs_data_const      0x00000efc   Data           8  app_timer2.o(log_const_data)
    m_nrf_log_sortlist_logs_data_const       0x00000f04   Data           8  nrf_sortlist.o(log_const_data)
    m_nrf_log_app_logs_data_const            0x00000f0c   Data           8  nrf_log_frontend.o(log_const_data)
    log_const_data$$Limit                    0x00000f14   Number         0  nrf_log_frontend.o(log_const_data)
    log_mempool                              0x00000f14   Data          20  nrf_log_frontend.o(nrf_balloc)
    SystemCoreClock                          0x20000028   Data           4  system_nrf52.o(.data)
    __initial_sp                             0x20001600   Data           0  arm_startup_nrf52.o(STACK)



==============================================================================

Memory Map of the image

  Image Entry point : 0x00000201

  Load Region LR_IROM1 (Base: 0x00000000, Size: 0x00000f54, Max: 0x00080000, ABSOLUTE)

    Execution Region ER_IROM1 (Exec base: 0x00000000, Load base: 0x00000000, Size: 0x00000f28, Max: 0x00080000, ABSOLUTE)

    Exec Addr    Load Addr    Size         Type   Attr      Idx    E Section Name        Object

    0x00000000   0x00000000   0x00000200   Data   RO         3461    RESET               arm_startup_nrf52.o
    0x00000200   0x00000200   0x00000000   Code   RO         5429  * .ARM.Collect$$$$00000000  mc_w.l(entry.o)
    0x00000200   0x00000200   0x00000004   Code   RO         5477    .ARM.Collect$$$$00000001  mc_w.l(entry2.o)
    0x00000204   0x00000204   0x00000004   Code   RO         5480    .ARM.Collect$$$$00000004  mc_w.l(entry5.o)
    0x00000208   0x00000208   0x00000000   Code   RO         5482    .ARM.Collect$$$$00000008  mc_w.l(entry7b.o)
    0x00000208   0x00000208   0x00000000   Code   RO         5484    .ARM.Collect$$$$0000000A  mc_w.l(entry8b.o)
    0x00000208   0x00000208   0x00000008   Code   RO         5485    .ARM.Collect$$$$0000000B  mc_w.l(entry9a.o)
    0x00000210   0x00000210   0x00000000   Code   RO         5487    .ARM.Collect$$$$0000000D  mc_w.l(entry10a.o)
    0x00000210   0x00000210   0x00000000   Code   RO         5489    .ARM.Collect$$$$0000000F  mc_w.l(entry11a.o)
    0x00000210   0x00000210   0x00000004   Code   RO         5478    .ARM.Collect$$$$00002712  mc_w.l(entry2.o)
    0x00000214   0x00000214   0x00000024   Code   RO         3462    .text               arm_startup_nrf52.o
    0x00000238   0x00000238   0x00000024   Code   RO         5493    .text               mc_w.l(init.o)
    0x0000025c   0x0000025c   0x000000bc   Code   RO          811    i.GPIOTE_IRQHandler  nrfx_gpiote.o
    0x00000318   0x00000318   0x00000054   Code   RO          625    i.POWER_CLOCK_IRQHandler  nrfx_clock.o
    0x0000036c   0x0000036c   0x00000018   Code   RO         2384    i.RTC1_IRQHandler   drv_rtc.o
    0x00000384   0x00000384   0x00000010   Code   RO         3469    i.SystemCoreClockUpdate  system_nrf52.o
    0x00000394   0x00000394   0x000002ac   Code   RO         3470    i.SystemInit        system_nrf52.o
    0x00000640   0x00000640   0x00000018   Code   RO         1181    i.TIMER0_IRQHandler  nrfx_timer.o
    0x00000658   0x00000658   0x0000000e   Code   RO         5497    i.__scatterload_copy  mc_w.l(handlers.o)
    0x00000666   0x00000666   0x00000002   Code   RO         5498    i.__scatterload_null  mc_w.l(handlers.o)
    0x00000668   0x00000668   0x0000000e   Code   RO         5499    i.__scatterload_zeroinit  mc_w.l(handlers.o)
    0x00000676   0x00000676   0x00000002   PAD
    0x00000678   0x00000678   0x00000010   Code   RO          813    i.channel_handler_get  nrfx_gpiote.o
    0x00000688   0x00000688   0x0000000c   Code   RO          815    i.channel_port_get  nrfx_gpiote.o
    0x00000694   0x00000694   0x0000005c   Code   RO         1182    i.irq_handler       nrfx_timer.o
    0x000006f0   0x000006f0   0x00000026   Code   RO          816    i.latch_pending_read_and_check  nrfx_gpiote.o
    0x00000716   0x00000716   0x0000004e   Code   RO            4    i.main              main.o
    0x00000764   0x00000764   0x0000005c   Code   RO         3557    i.nrf52_errata_108  system_nrf52.o
    0x000007c0   0x000007c0   0x00000044   Code   RO         3564    i.nrf52_errata_115  system_nrf52.o
    0x00000804   0x00000804   0x0000005c   Code   RO         3569    i.nrf52_errata_12   system_nrf52.o
    0x00000860   0x00000860   0x00000044   Code   RO         3570    i.nrf52_errata_120  system_nrf52.o
    0x000008a4   0x000008a4   0x00000088   Code   RO         3580    i.nrf52_errata_136  system_nrf52.o
    0x0000092c   0x0000092c   0x00000040   Code   RO         3599    i.nrf52_errata_16   system_nrf52.o
    0x0000096c   0x0000096c   0x00000040   Code   RO         3616    i.nrf52_errata_182  system_nrf52.o
    0x000009ac   0x000009ac   0x0000005c   Code   RO         3677    i.nrf52_errata_31   system_nrf52.o
    0x00000a08   0x00000a08   0x00000040   Code   RO         3678    i.nrf52_errata_32   system_nrf52.o
    0x00000a48   0x00000a48   0x00000088   Code   RO         3682    i.nrf52_errata_36   system_nrf52.o
    0x00000ad0   0x00000ad0   0x00000040   Code   RO         3683    i.nrf52_errata_37   system_nrf52.o
    0x00000b10   0x00000b10   0x00000040   Code   RO         3699    i.nrf52_errata_57   system_nrf52.o
    0x00000b50   0x00000b50   0x00000088   Code   RO         3705    i.nrf52_errata_66   system_nrf52.o
    0x00000bd8   0x00000bd8   0x00000044   Code   RO         3732    i.nrf52_errata_98   system_nrf52.o
    0x00000c1c   0x00000c1c   0x00000016   Code   RO          817    i.nrf_bitmask_bit_is_set  nrfx_gpiote.o
    0x00000c32   0x00000c32   0x00000012   Code   RO          626    i.nrf_clock_event_check  nrfx_clock.o
    0x00000c44   0x00000c44   0x00000012   Code   RO          627    i.nrf_clock_event_clear  nrfx_clock.o
    0x00000c56   0x00000c56   0x00000002   PAD
    0x00000c58   0x00000c58   0x0000000c   Code   RO          628    i.nrf_clock_int_disable  nrfx_clock.o
    0x00000c64   0x00000c64   0x00000032   Code   RO          820    i.nrf_gpio_cfg_sense_set  nrfx_gpiote.o
    0x00000c96   0x00000c96   0x00000002   PAD
    0x00000c98   0x00000c98   0x00000034   Code   RO          821    i.nrf_gpio_latches_read_and_clear  nrfx_gpiote.o
    0x00000ccc   0x00000ccc   0x0000000c   Code   RO          826    i.nrf_gpiote_event_addr_get  nrfx_gpiote.o
    0x00000cd8   0x00000cd8   0x0000001c   Code   RO          827    i.nrf_gpiote_event_clear  nrfx_gpiote.o
    0x00000cf4   0x00000cf4   0x00000016   Code   RO          828    i.nrf_gpiote_event_is_set  nrfx_gpiote.o
    0x00000d0a   0x00000d0a   0x0000000e   Code   RO         1183    i.nrf_timer_compare_event_get  nrfx_timer.o
    0x00000d18   0x00000d18   0x0000000a   Code   RO         1184    i.nrf_timer_compare_int_get  nrfx_timer.o
    0x00000d22   0x00000d22   0x0000000e   Code   RO         1185    i.nrf_timer_event_clear  nrfx_timer.o
    0x00000d30   0x00000d30   0x00000014   Code   RO         3851    i.nvmc_config       system_nrf52.o
    0x00000d44   0x00000d44   0x00000010   Code   RO         3852    i.nvmc_wait         system_nrf52.o
    0x00000d54   0x00000d54   0x000000c0   Code   RO          867    i.port_event_handle  nrfx_gpiote.o
    0x00000e14   0x00000e14   0x00000010   Code   RO          868    i.port_handler_pin_get  nrfx_gpiote.o
    0x00000e24   0x00000e24   0x00000010   Code   RO          869    i.port_handler_polarity_get  nrfx_gpiote.o
    0x00000e34   0x00000e34   0x0000003e   Data   RO          871    .constdata          nrfx_gpiote.o
    0x00000e72   0x00000e72   0x00000002   PAD
    0x00000e74   0x00000e74   0x00000006   Data   RO          464    .conststrlit        nrf_drv_clock.o
    0x00000e7a   0x00000e7a   0x00000002   PAD
    0x00000e7c   0x00000e7c   0x00000006   Data   RO          647    .conststrlit        nrfx_clock.o
    0x00000e82   0x00000e82   0x00000002   PAD
    0x00000e84   0x00000e84   0x00000007   Data   RO          872    .conststrlit        nrfx_gpiote.o
    0x00000e8b   0x00000e8b   0x00000001   PAD
    0x00000e8c   0x00000e8c   0x00000006   Data   RO         1207    .conststrlit        nrfx_timer.o
    0x00000e92   0x00000e92   0x00000002   PAD
    0x00000e94   0x00000e94   0x00000004   Data   RO         1376    .conststrlit        nrfx_ppi.o
    0x00000e98   0x00000e98   0x0000000a   Data   RO         2242    .conststrlit        app_timer2.o
    0x00000ea2   0x00000ea2   0x00000002   PAD
    0x00000ea4   0x00000ea4   0x00000009   Data   RO         2608    .conststrlit        nrf_sortlist.o
    0x00000ead   0x00000ead   0x00000003   PAD
    0x00000eb0   0x00000eb0   0x00000004   Data   RO         2870    .conststrlit        nrf_log_frontend.o
    0x00000eb4   0x00000eb4   0x00000020   Data   RO         5495    Region$$Table       anon$$obj.o
    0x00000ed4   0x00000ed4   0x00000008   Data   RO          465    log_const_data      nrf_drv_clock.o
    0x00000edc   0x00000edc   0x00000008   Data   RO          649    log_const_data      nrfx_clock.o
    0x00000ee4   0x00000ee4   0x00000008   Data   RO          873    log_const_data      nrfx_gpiote.o
    0x00000eec   0x00000eec   0x00000008   Data   RO         1208    log_const_data      nrfx_timer.o
    0x00000ef4   0x00000ef4   0x00000008   Data   RO         1378    log_const_data      nrfx_ppi.o
    0x00000efc   0x00000efc   0x00000008   Data   RO         2244    log_const_data      app_timer2.o
    0x00000f04   0x00000f04   0x00000008   Data   RO         2609    log_const_data      nrf_sortlist.o
    0x00000f0c   0x00000f0c   0x00000008   Data   RO         2872    log_const_data      nrf_log_frontend.o
    0x00000f14   0x00000f14   0x00000014   Data   RO         2873    nrf_balloc          nrf_log_frontend.o


    Execution Region RW_IRAM1 (Exec base: 0x20000000, Load base: 0x00000f28, Size: 0x00001600, Max: 0x00010000, ABSOLUTE)

    Exec Addr    Load Addr    Size         Type   Attr      Idx    E Section Name        Object

    0x20000000   0x00000f28   0x00000008   Data   RW          648    .data               nrfx_clock.o
    0x20000008   0x00000f30   0x0000000c   Data   RW         2418    .data               drv_rtc.o
    0x20000014   0x00000f3c   0x00000014   Data   RW         2871    .data               nrf_log_frontend.o
    0x20000028   0x00000f50   0x00000004   Data   RW         3853    .data               system_nrf52.o
    0x2000002c        -       0x0000004c   Zero   RW          870    .bss                nrfx_gpiote.o
    0x20000078        -       0x0000000c   Zero   RW         1205    .bss                nrfx_timer.o
    0x20000084        -       0x00000578   Zero   RW         2868    .bss                nrf_log_frontend.o
    0x200005fc   0x00000f54   0x00000004   PAD
    0x20000600        -       0x00001000   Zero   RW         3459    STACK               arm_startup_nrf52.o


==============================================================================

Image component sizes


      Code (inc. data)   RO Data    RW Data    ZI Data      Debug   Object Name

         0          0          0          0          0      35959   app_error_weak.o
         0          0         18          0          0       7966   app_timer2.o
        36          8        512          0       4096        856   arm_startup_nrf52.o
        24         10          0         12          0       2006   drv_rtc.o
        78          0          0          0          0      42775   main.o
         0          0         14          0          0       5714   nrf_drv_clock.o
         0          0         32         20       1400      12583   nrf_log_frontend.o
         0          0          0          0          0       1368   nrf_ringbuf.o
         0          0         17          0          0        845   nrf_sortlist.o
       132         10         14          8          0       9707   nrfx_clock.o
       664         44         77          0         76      58018   nrfx_gpiote.o
         0          0         12          0          0        332   nrfx_ppi.o
       154         10         14          0         12      10658   nrfx_timer.o
      1944        216          0          4          0      13005   system_nrf52.o

    ----------------------------------------------------------------------
      3036        298        756         44       5588     201792   Object Totals
         0          0         32          0          0          0   (incl. Generated)
         4          0         14          0          4          0   (incl. Padding)

    ----------------------------------------------------------------------

      Code (inc. data)   RO Data    RW Data    ZI Data      Debug   Library Member Name

         0          0          0          0          0          0   entry.o
         0          0          0          0          0          0   entry10a.o
         0          0          0          0          0          0   entry11a.o
         8          4          0          0          0          0   entry2.o
         4          0          0          0          0          0   entry5.o
         0          0          0          0          0          0   entry7b.o
         0          0          0          0          0          0   entry8b.o
         8          4          0          0          0          0   entry9a.o
        30          0          0          0          0          0   handlers.o
        36          8          0          0          0         68   init.o

    ----------------------------------------------------------------------
        88         16          0          0          0         68   Library Totals
         2          0          0          0          0          0   (incl. Padding)

    ----------------------------------------------------------------------

      Code (inc. data)   RO Data    RW Data    ZI Data      Debug   Library Name

        86         16          0          0          0         68   mc_w.l

    ----------------------------------------------------------------------
        88         16          0          0          0         68   Library Totals

    ----------------------------------------------------------------------

==============================================================================


      Code (inc. data)   RO Data    RW Data    ZI Data      Debug   

      3124        314        756         44       5588     198264   Grand Totals
      3124        314        756         44       5588     198264   ELF Image Totals
      3124        314        756         44          0          0   ROM Totals

==============================================================================

    Total RO  Size (Code + RO Data)                 3880 (   3.79kB)
    Total RW  Size (RW Data + ZI Data)              5632 (   5.50kB)
    Total ROM Size (Code + RO Data + RW Data)       3924 (   3.83kB)

==============================================================================

